{
  "contractName": "SupplyChain",
  "abi": [
    {
      "inputs": [],
      "stateMutability": "nonpayable",
      "type": "constructor"
    },
    {
      "anonymous": false,
      "inputs": [
        {
          "indexed": false,
          "internalType": "uint256",
          "name": "BatchId",
          "type": "uint256"
        },
        {
          "indexed": true,
          "internalType": "address",
          "name": "manufacturer",
          "type": "address"
        }
      ],
      "name": "AddBatch",
      "type": "event"
    },
    {
      "anonymous": false,
      "inputs": [
        {
          "indexed": false,
          "internalType": "address",
          "name": "entityId",
          "type": "address"
        },
        {
          "indexed": false,
          "internalType": "string",
          "name": "entityMode",
          "type": "string"
        }
      ],
      "name": "AddEntity",
      "type": "event"
    },
    {
      "anonymous": false,
      "inputs": [
        {
          "indexed": true,
          "internalType": "address",
          "name": "issuer",
          "type": "address"
        },
        {
          "indexed": true,
          "internalType": "address",
          "name": "prover",
          "type": "address"
        },
        {
          "indexed": false,
          "internalType": "uint256",
          "name": "certificateId",
          "type": "uint256"
        }
      ],
      "name": "IssueCertificate",
      "type": "event"
    },
    {
      "inputs": [
        {
          "internalType": "uint256",
          "name": "",
          "type": "uint256"
        }
      ],
      "name": "BatchIds",
      "outputs": [
        {
          "internalType": "uint256",
          "name": "",
          "type": "uint256"
        }
      ],
      "stateMutability": "view",
      "type": "function",
      "constant": true
    },
    {
      "inputs": [
        {
          "internalType": "uint256",
          "name": "",
          "type": "uint256"
        }
      ],
      "name": "Batches",
      "outputs": [
        {
          "internalType": "uint256",
          "name": "id",
          "type": "uint256"
        },
        {
          "internalType": "string",
          "name": "brand",
          "type": "string"
        },
        {
          "internalType": "address",
          "name": "manufacturer",
          "type": "address"
        }
      ],
      "stateMutability": "view",
      "type": "function",
      "constant": true
    },
    {
      "inputs": [],
      "name": "MAX_CERTIFICATIONS",
      "outputs": [
        {
          "internalType": "uint256",
          "name": "",
          "type": "uint256"
        }
      ],
      "stateMutability": "view",
      "type": "function",
      "constant": true
    },
    {
      "inputs": [
        {
          "internalType": "uint256",
          "name": "",
          "type": "uint256"
        }
      ],
      "name": "certificateID",
      "outputs": [
        {
          "internalType": "uint256",
          "name": "",
          "type": "uint256"
        }
      ],
      "stateMutability": "view",
      "type": "function",
      "constant": true
    },
    {
      "inputs": [
        {
          "internalType": "uint256",
          "name": "",
          "type": "uint256"
        }
      ],
      "name": "certificates",
      "outputs": [
        {
          "internalType": "uint256",
          "name": "id",
          "type": "uint256"
        },
        {
          "components": [
            {
              "internalType": "address",
              "name": "id",
              "type": "address"
            },
            {
              "internalType": "enum SupplyChain.Mode",
              "name": "mode",
              "type": "uint8"
            },
            {
              "internalType": "uint256[]",
              "name": "certificateID",
              "type": "uint256[]"
            }
          ],
          "internalType": "struct SupplyChain.Entity",
          "name": "issuer",
          "type": "tuple"
        },
        {
          "components": [
            {
              "internalType": "address",
              "name": "id",
              "type": "address"
            },
            {
              "internalType": "enum SupplyChain.Mode",
              "name": "mode",
              "type": "uint8"
            },
            {
              "internalType": "uint256[]",
              "name": "certificateID",
              "type": "uint256[]"
            }
          ],
          "internalType": "struct SupplyChain.Entity",
          "name": "prover",
          "type": "tuple"
        },
        {
          "internalType": "bytes",
          "name": "signature",
          "type": "bytes"
        },
        {
          "internalType": "enum SupplyChain.Status",
          "name": "status",
          "type": "uint8"
        }
      ],
      "stateMutability": "view",
      "type": "function",
      "constant": true
    },
    {
      "inputs": [
        {
          "internalType": "address",
          "name": "",
          "type": "address"
        }
      ],
      "name": "entities",
      "outputs": [
        {
          "internalType": "address",
          "name": "id",
          "type": "address"
        },
        {
          "internalType": "enum SupplyChain.Mode",
          "name": "mode",
          "type": "uint8"
        }
      ],
      "stateMutability": "view",
      "type": "function",
      "constant": true
    },
    {
      "inputs": [
        {
          "internalType": "uint256",
          "name": "",
          "type": "uint256"
        }
      ],
      "name": "items",
      "outputs": [
        {
          "internalType": "uint256",
          "name": "price",
          "type": "uint256"
        },
        {
          "internalType": "string",
          "name": "desc",
          "type": "string"
        },
        {
          "internalType": "address",
          "name": "buyer",
          "type": "address"
        }
      ],
      "stateMutability": "view",
      "type": "function",
      "constant": true
    },
    {
      "inputs": [
        {
          "internalType": "uint256",
          "name": "_price",
          "type": "uint256"
        },
        {
          "internalType": "string",
          "name": "_desc",
          "type": "string"
        }
      ],
      "name": "add",
      "outputs": [],
      "stateMutability": "nonpayable",
      "type": "function"
    },
    {
      "inputs": [
        {
          "internalType": "uint256",
          "name": "_id",
          "type": "uint256"
        }
      ],
      "name": "buy",
      "outputs": [],
      "stateMutability": "payable",
      "type": "function",
      "payable": true
    },
    {
      "inputs": [
        {
          "internalType": "address",
          "name": "_id",
          "type": "address"
        },
        {
          "internalType": "string",
          "name": "_mode",
          "type": "string"
        }
      ],
      "name": "addEntity",
      "outputs": [],
      "stateMutability": "nonpayable",
      "type": "function"
    },
    {
      "inputs": [
        {
          "internalType": "string",
          "name": "brand",
          "type": "string"
        },
        {
          "internalType": "address",
          "name": "manufacturer",
          "type": "address"
        }
      ],
      "name": "addBatch",
      "outputs": [
        {
          "internalType": "uint256",
          "name": "",
          "type": "uint256"
        }
      ],
      "stateMutability": "nonpayable",
      "type": "function"
    },
    {
      "inputs": [
        {
          "internalType": "address",
          "name": "_issuer",
          "type": "address"
        },
        {
          "internalType": "address",
          "name": "_prover",
          "type": "address"
        },
        {
          "internalType": "string",
          "name": "_status",
          "type": "string"
        },
        {
          "internalType": "bytes",
          "name": "signature",
          "type": "bytes"
        }
      ],
      "name": "issueCertificate",
      "outputs": [
        {
          "internalType": "uint256",
          "name": "",
          "type": "uint256"
        }
      ],
      "stateMutability": "nonpayable",
      "type": "function"
    },
    {
      "inputs": [
        {
          "internalType": "bytes32",
          "name": "message",
          "type": "bytes32"
        },
        {
          "internalType": "uint256",
          "name": "id",
          "type": "uint256"
        },
        {
          "internalType": "address",
          "name": "issuer",
          "type": "address"
        }
      ],
      "name": "isMatchingSignature",
      "outputs": [
        {
          "internalType": "bool",
          "name": "",
          "type": "bool"
        }
      ],
      "stateMutability": "view",
      "type": "function",
      "constant": true
    }
  ],
  "bytecode": "0x6080604052600060025534801561001557600080fd5b50336000806101000a81548173ffffffffffffffffffffffffffffffffffffffff021916908373ffffffffffffffffffffffffffffffffffffffff160217905550612f8f806100656000396000f3fe6080604052600436106100c25760003560e01c8063663b3e221161007f578063b5bad46d11610059578063b5bad46d146102cd578063bfb231d2146102f6578063d96a094a14610335578063f0220ab514610351576100c2565b8063663b3e22146102265780637230bce8146102675780638ca3475614610290576100c2565b806301cf8140146100c75780631d8ee48a146101045780633fc2a4321461014257806345194c07146101815780634851a01d146101be57806348ccc470146101e9575b600080fd5b3480156100d357600080fd5b506100ee60048036038101906100e99190611de7565b61038e565b6040516100fb9190611e9f565b60405180910390f35b34801561011057600080fd5b5061012b60048036038101906101269190611eba565b610935565b604051610139929190611f6d565b60405180910390f35b34801561014e57600080fd5b5061016960048036038101906101649190611fc2565b610986565b60405161017893929190612077565b60405180910390f35b34801561018d57600080fd5b506101a860048036038101906101a391906120eb565b610a58565b6040516101b59190612159565b60405180910390f35b3480156101ca57600080fd5b506101d3610de0565b6040516101e09190611e9f565b60405180910390f35b3480156101f557600080fd5b50610210600480360381019061020b9190611fc2565b610de5565b60405161021d9190611e9f565b60405180910390f35b34801561023257600080fd5b5061024d60048036038101906102489190611fc2565b610e09565b60405161025e95949392919061233d565b60405180910390f35b34801561027357600080fd5b5061028e600480360381019061028991906123a5565b6110ba565b005b34801561029c57600080fd5b506102b760048036038101906102b29190612401565b611215565b6040516102c49190611e9f565b60405180910390f35b3480156102d957600080fd5b506102f460048036038101906102ef919061245d565b6113cf565b005b34801561030257600080fd5b5061031d60048036038101906103189190611fc2565b61158c565b60405161032c93929190612077565b60405180910390f35b61034f600480360381019061034a9190611fc2565b61165e565b005b34801561035d57600080fd5b5061037860048036038101906103739190611fc2565b61172c565b6040516103859190611e9f565b60405180910390f35b600080600760008773ffffffffffffffffffffffffffffffffffffffff1673ffffffffffffffffffffffffffffffffffffffff1681526020019081526020016000206040518060600160405290816000820160009054906101000a900473ffffffffffffffffffffffffffffffffffffffff1673ffffffffffffffffffffffffffffffffffffffff1673ffffffffffffffffffffffffffffffffffffffff1681526020016000820160149054906101000a900460ff16600281111561045657610455611ef6565b5b600281111561046857610467611ef6565b5b8152602001600182018054806020026020016040519081016040528092919081815260200182805480156104bb57602002820191906000526020600020905b8154815260200190600101908083116104a7575b5050505050815250509050600060028111156104da576104d9611ef6565b5b816020015160028111156104f1576104f0611ef6565b5b146104fb57600080fd5b6000600760008773ffffffffffffffffffffffffffffffffffffffff1673ffffffffffffffffffffffffffffffffffffffff1681526020019081526020016000206040518060600160405290816000820160009054906101000a900473ffffffffffffffffffffffffffffffffffffffff1673ffffffffffffffffffffffffffffffffffffffff1673ffffffffffffffffffffffffffffffffffffffff1681526020016000820160149054906101000a900460ff1660028111156105c2576105c1611ef6565b5b60028111156105d4576105d3611ef6565b5b81526020016001820180548060200260200160405190810160405280929190818152602001828054801561062757602002820191906000526020600020905b815481526020019060010190808311610613575b50505050508152505090506001600281111561064657610645611ef6565b5b8160200151600281111561065d5761065c611ef6565b5b1461066757600080fd5b600061067286611750565b90506000600380549050905060006040518060a001604052808381526020018681526020018581526020018881526020018460048111156106b6576106b5611ef6565b5b8152509050600380805490509080600181540180825580915050600190039060005260206000200160009091909190915055806006600060016003805490506106ff91906124e8565b81526020019081526020016000206000820151816000015560208201518160010160008201518160000160006101000a81548173ffffffffffffffffffffffffffffffffffffffff021916908373ffffffffffffffffffffffffffffffffffffffff16021790555060208201518160000160146101000a81548160ff0219169083600281111561079257610791611ef6565b5b021790555060408201518160010190805190602001906107b3929190611b24565b50505060408201518160030160008201518160000160006101000a81548173ffffffffffffffffffffffffffffffffffffffff021916908373ffffffffffffffffffffffffffffffffffffffff16021790555060208201518160000160146101000a81548160ff0219169083600281111561083157610830611ef6565b5b02179055506040820151816001019080519060200190610852929190611b24565b505050606082015181600501908161086a9190612728565b5060808201518160060160006101000a81548160ff0219169083600481111561089657610895611ef6565b5b02179055509050508873ffffffffffffffffffffffffffffffffffffffff168a73ffffffffffffffffffffffffffffffffffffffff167fc9e3e855764ebb21ed83dcdf8ed5e1398c752d6446308e092c28a84a77a199bd60016003805490506108ff91906124e8565b60405161090c9190611e9f565b60405180910390a3600160038054905061092691906124e8565b95505050505050949350505050565b60076020528060005260406000206000915090508060000160009054906101000a900473ffffffffffffffffffffffffffffffffffffffff16908060000160149054906101000a900460ff16905082565b60056020528060005260406000206000915090508060000154908060010180546109af9061254b565b80601f01602080910402602001604051908101604052809291908181526020018280546109db9061254b565b8015610a285780601f106109fd57610100808354040283529160200191610a28565b820191906000526020600020905b815481529060010190602001808311610a0b57829003601f168201915b5050505050908060020160009054906101000a900473ffffffffffffffffffffffffffffffffffffffff16905083565b600080600660008581526020019081526020016000206040518060a001604052908160008201548152602001600182016040518060600160405290816000820160009054906101000a900473ffffffffffffffffffffffffffffffffffffffff1673ffffffffffffffffffffffffffffffffffffffff1673ffffffffffffffffffffffffffffffffffffffff1681526020016000820160149054906101000a900460ff166002811115610b0e57610b0d611ef6565b5b6002811115610b2057610b1f611ef6565b5b815260200160018201805480602002602001604051908101604052809291908181526020018280548015610b7357602002820191906000526020600020905b815481526020019060010190808311610b5f575b5050505050815250508152602001600382016040518060600160405290816000820160009054906101000a900473ffffffffffffffffffffffffffffffffffffffff1673ffffffffffffffffffffffffffffffffffffffff1673ffffffffffffffffffffffffffffffffffffffff1681526020016000820160149054906101000a900460ff166002811115610c0b57610c0a611ef6565b5b6002811115610c1d57610c1c611ef6565b5b815260200160018201805480602002602001604051908101604052809291908181526020018280548015610c7057602002820191906000526020600020905b815481526020019060010190808311610c5c575b5050505050815250508152602001600582018054610c8d9061254b565b80601f0160208091040260200160405190810160405280929190818152602001828054610cb99061254b565b8015610d065780601f10610cdb57610100808354040283529160200191610d06565b820191906000526020600020905b815481529060010190602001808311610ce957829003601f168201915b505050505081526020016006820160009054906101000a900460ff166004811115610d3457610d33611ef6565b5b6004811115610d4657610d45611ef6565b5b8152505090508273ffffffffffffffffffffffffffffffffffffffff1681602001516000015173ffffffffffffffffffffffffffffffffffffffff1614610d8c57600080fd5b6000610d9c8683606001516118f7565b905081602001516000015173ffffffffffffffffffffffffffffffffffffffff168173ffffffffffffffffffffffffffffffffffffffff1614925050509392505050565b600281565b60038181548110610df557600080fd5b906000526020600020016000915090505481565b6006602052806000526040600020600091509050806000015490806001016040518060600160405290816000820160009054906101000a900473ffffffffffffffffffffffffffffffffffffffff1673ffffffffffffffffffffffffffffffffffffffff1673ffffffffffffffffffffffffffffffffffffffff1681526020016000820160149054906101000a900460ff166002811115610ead57610eac611ef6565b5b6002811115610ebf57610ebe611ef6565b5b815260200160018201805480602002602001604051908101604052809291908181526020018280548015610f1257602002820191906000526020600020905b815481526020019060010190808311610efe575b50505050508152505090806003016040518060600160405290816000820160009054906101000a900473ffffffffffffffffffffffffffffffffffffffff1673ffffffffffffffffffffffffffffffffffffffff1673ffffffffffffffffffffffffffffffffffffffff1681526020016000820160149054906101000a900460ff166002811115610fa657610fa5611ef6565b5b6002811115610fb857610fb7611ef6565b5b81526020016001820180548060200260200160405190810160405280929190818152602001828054801561100b57602002820191906000526020600020905b815481526020019060010190808311610ff7575b505050505081525050908060050180546110249061254b565b80601f01602080910402602001604051908101604052809291908181526020018280546110509061254b565b801561109d5780601f106110725761010080835404028352916020019161109d565b820191906000526020600020905b81548152906001019060200180831161108057829003601f168201915b5050505050908060060160009054906101000a900460ff16905085565b60008054906101000a900473ffffffffffffffffffffffffffffffffffffffff1673ffffffffffffffffffffffffffffffffffffffff163373ffffffffffffffffffffffffffffffffffffffff1614611148576040517f08c379a000000000000000000000000000000000000000000000000000000000815260040161113f90612846565b60405180910390fd5b6040518060600160405280838152602001828152602001600073ffffffffffffffffffffffffffffffffffffffff168152506001600060025481526020019081526020016000206000820151816000015560208201518160010190816111ae91906128c1565b5060408201518160020160006101000a81548173ffffffffffffffffffffffffffffffffffffffff021916908373ffffffffffffffffffffffffffffffffffffffff1602179055509050506002600081548092919061120c90612993565b91905055505050565b600080600267ffffffffffffffff81111561123357611232611c1b565b5b6040519080825280602002602001820160405280156112615781602001602082028036833780820191505090505b50905060006004805490509050600060405180608001604052808381526020018781526020018673ffffffffffffffffffffffffffffffffffffffff16815260200184815250905080600560008481526020019081526020016000206000820151816000015560208201518160010190816112dc91906128c1565b5060408201518160020160006101000a81548173ffffffffffffffffffffffffffffffffffffffff021916908373ffffffffffffffffffffffffffffffffffffffff1602179055506060820151816003019080519060200190611340929190611b24565b509050506004829080600181540180825580915050600190039060005260206000200160009091909190915055806040015173ffffffffffffffffffffffffffffffffffffffff167f20204ca01ababbb2aa99418c9374e937c27e38848e7058fe2c7833e68e6d62c682600001516040516113bb9190611e9f565b60405180910390a281935050505092915050565b60006113da826119cf565b90506000600267ffffffffffffffff8111156113f9576113f8611c1b565b5b6040519080825280602002602001820160405280156114275781602001602082028036833780820191505090505b509050600060405180606001604052808673ffffffffffffffffffffffffffffffffffffffff16815260200184600281111561146657611465611ef6565b5b815260200183815250905080600760008773ffffffffffffffffffffffffffffffffffffffff1673ffffffffffffffffffffffffffffffffffffffff16815260200190815260200160002060008201518160000160006101000a81548173ffffffffffffffffffffffffffffffffffffffff021916908373ffffffffffffffffffffffffffffffffffffffff16021790555060208201518160000160146101000a81548160ff0219169083600281111561152357611522611ef6565b5b02179055506040820151816001019080519060200190611544929190611b24565b509050507ff5a37da00f0e4029ee2682b1919ee55d7e6f9d7492237aad9bd1aea7d53d487481600001518560405161157d9291906129db565b60405180910390a15050505050565b60016020528060005260406000206000915090508060000154908060010180546115b59061254b565b80601f01602080910402602001604051908101604052809291908181526020018280546115e19061254b565b801561162e5780601f106116035761010080835404028352916020019161162e565b820191906000526020600020905b81548152906001019060200180831161161157829003601f168201915b5050505050908060020160009054906101000a900473ffffffffffffffffffffffffffffffffffffffff16905083565b348034101561166c57600080fd5b60008054906101000a900473ffffffffffffffffffffffffffffffffffffffff1673ffffffffffffffffffffffffffffffffffffffff166108fc349081150290604051600060405180830381858888f193505050501580156116d2573d6000803e3d6000fd5b50336001600084815260200190815260200160002060020160006101000a81548173ffffffffffffffffffffffffffffffffffffffff021916908373ffffffffffffffffffffffffffffffffffffffff1602179055505050565b6004818154811061173c57600080fd5b906000526020600020016000915090505481565b600080826040516020016117649190612a47565b604051602081830303815290604052805190602001209050600060405160200161178d90612aaa565b60405160208183030381529060405280519060200120905060006040516020016117b690612b0b565b60405160208183030381529060405280519060200120905060006040516020016117df90612b6c565b604051602081830303815290604052805190602001209050600060405160200161180890612bcd565b604051602081830303815290604052805190602001209050600060405160200161183190612c2e565b60405160208183030381529060405280519060200120905084860361185f57600096505050505050506118f2565b83860361187557600196505050505050506118f2565b82860361188b57600296505050505050506118f2565b8186036118a157600396505050505050506118f2565b8086036118b757600496505050505050506118f2565b6040517f08c379a00000000000000000000000000000000000000000000000000000000081526004016118e990612cb5565b60405180910390fd5b919050565b60008060008061190685611af2565b92509250925060006040518060400160405280601c81526020017f19457468657265756d205369676e6564204d6573736167653a0a33320000000081525090506000818860405160200161195b929190612d32565b604051602081830303815290604052805190602001209050600181868686604051600081526020016040526040516119969493929190612d85565b6020604051602081039080840390855afa1580156119b8573d6000803e3d6000fd5b505050602060405103519550505050505092915050565b600080826040516020016119e39190612a47565b6040516020818303038152906040528051906020012090506000604051602001611a0c90612e16565b6040516020818303038152906040528051906020012090506000604051602001611a3590612e77565b6040516020818303038152906040528051906020012090506000604051602001611a5e90612ed8565b604051602081830303815290604052805190602001209050828403611a8a576000945050505050611aed565b818403611a9e576001945050505050611aed565b808403611ab2576002945050505050611aed565b6040517f08c379a0000000000000000000000000000000000000000000000000000000008152600401611ae490612f39565b60405180910390fd5b919050565b60008060006041845114611b0557600080fd5b6020840151915060408401519050606084015160001a92509193909250565b828054828255906000526020600020908101928215611b60579160200282015b82811115611b5f578251825591602001919060010190611b44565b5b509050611b6d9190611b71565b5090565b5b80821115611b8a576000816000905550600101611b72565b5090565b6000604051905090565b600080fd5b600080fd5b600073ffffffffffffffffffffffffffffffffffffffff82169050919050565b6000611bcd82611ba2565b9050919050565b611bdd81611bc2565b8114611be857600080fd5b50565b600081359050611bfa81611bd4565b92915050565b600080fd5b600080fd5b6000601f19601f8301169050919050565b7f4e487b7100000000000000000000000000000000000000000000000000000000600052604160045260246000fd5b611c5382611c0a565b810181811067ffffffffffffffff82111715611c7257611c71611c1b565b5b80604052505050565b6000611c85611b8e565b9050611c918282611c4a565b919050565b600067ffffffffffffffff821115611cb157611cb0611c1b565b5b611cba82611c0a565b9050602081019050919050565b82818337600083830152505050565b6000611ce9611ce484611c96565b611c7b565b905082815260208101848484011115611d0557611d04611c05565b5b611d10848285611cc7565b509392505050565b600082601f830112611d2d57611d2c611c00565b5b8135611d3d848260208601611cd6565b91505092915050565b600067ffffffffffffffff821115611d6157611d60611c1b565b5b611d6a82611c0a565b9050602081019050919050565b6000611d8a611d8584611d46565b611c7b565b905082815260208101848484011115611da657611da5611c05565b5b611db1848285611cc7565b509392505050565b600082601f830112611dce57611dcd611c00565b5b8135611dde848260208601611d77565b91505092915050565b60008060008060808587031215611e0157611e00611b98565b5b6000611e0f87828801611beb565b9450506020611e2087828801611beb565b935050604085013567ffffffffffffffff811115611e4157611e40611b9d565b5b611e4d87828801611d18565b925050606085013567ffffffffffffffff811115611e6e57611e6d611b9d565b5b611e7a87828801611db9565b91505092959194509250565b6000819050919050565b611e9981611e86565b82525050565b6000602082019050611eb46000830184611e90565b92915050565b600060208284031215611ed057611ecf611b98565b5b6000611ede84828501611beb565b91505092915050565b611ef081611bc2565b82525050565b7f4e487b7100000000000000000000000000000000000000000000000000000000600052602160045260246000fd5b60038110611f3657611f35611ef6565b5b50565b6000819050611f4782611f25565b919050565b6000611f5782611f39565b9050919050565b611f6781611f4c565b82525050565b6000604082019050611f826000830185611ee7565b611f8f6020830184611f5e565b9392505050565b611f9f81611e86565b8114611faa57600080fd5b50565b600081359050611fbc81611f96565b92915050565b600060208284031215611fd857611fd7611b98565b5b6000611fe684828501611fad565b91505092915050565b600081519050919050565b600082825260208201905092915050565b60005b8381101561202957808201518184015260208101905061200e565b83811115612038576000848401525b50505050565b600061204982611fef565b6120538185611ffa565b935061206381856020860161200b565b61206c81611c0a565b840191505092915050565b600060608201905061208c6000830186611e90565b818103602083015261209e818561203e565b90506120ad6040830184611ee7565b949350505050565b6000819050919050565b6120c8816120b5565b81146120d357600080fd5b50565b6000813590506120e5816120bf565b92915050565b60008060006060848603121561210457612103611b98565b5b6000612112868287016120d6565b935050602061212386828701611fad565b925050604061213486828701611beb565b9150509250925092565b60008115159050919050565b6121538161213e565b82525050565b600060208201905061216e600083018461214a565b92915050565b61217d81611bc2565b82525050565b61218c81611f4c565b82525050565b600081519050919050565b600082825260208201905092915050565b6000819050602082019050919050565b6121c781611e86565b82525050565b60006121d983836121be565b60208301905092915050565b6000602082019050919050565b60006121fd82612192565b612207818561219d565b9350612212836121ae565b8060005b8381101561224357815161222a88826121cd565b9750612235836121e5565b925050600181019050612216565b5085935050505092915050565b60006060830160008301516122686000860182612174565b50602083015161227b6020860182612183565b506040830151848203604086015261229382826121f2565b9150508091505092915050565b600081519050919050565b600082825260208201905092915050565b60006122c7826122a0565b6122d181856122ab565b93506122e181856020860161200b565b6122ea81611c0a565b840191505092915050565b6005811061230657612305611ef6565b5b50565b6000819050612317826122f5565b919050565b600061232782612309565b9050919050565b6123378161231c565b82525050565b600060a0820190506123526000830188611e90565b81810360208301526123648187612250565b905081810360408301526123788186612250565b9050818103606083015261238c81856122bc565b905061239b608083018461232e565b9695505050505050565b600080604083850312156123bc576123bb611b98565b5b60006123ca85828601611fad565b925050602083013567ffffffffffffffff8111156123eb576123ea611b9d565b5b6123f785828601611d18565b9150509250929050565b6000806040838503121561241857612417611b98565b5b600083013567ffffffffffffffff81111561243657612435611b9d565b5b61244285828601611d18565b925050602061245385828601611beb565b9150509250929050565b6000806040838503121561247457612473611b98565b5b600061248285828601611beb565b925050602083013567ffffffffffffffff8111156124a3576124a2611b9d565b5b6124af85828601611d18565b9150509250929050565b7f4e487b7100000000000000000000000000000000000000000000000000000000600052601160045260246000fd5b60006124f382611e86565b91506124fe83611e86565b925082821015612511576125106124b9565b5b828203905092915050565b7f4e487b7100000000000000000000000000000000000000000000000000000000600052602260045260246000fd5b6000600282049050600182168061256357607f821691505b6020821081036125765761257561251c565b5b50919050565b60008190508160005260206000209050919050565b60006020601f8301049050919050565b600082821b905092915050565b6000600883026125de7fffffffffffffffffffffffffffffffffffffffffffffffffffffffffffffffff826125a1565b6125e886836125a1565b95508019841693508086168417925050509392505050565b6000819050919050565b600061262561262061261b84611e86565b612600565b611e86565b9050919050565b6000819050919050565b61263f8361260a565b61265361264b8261262c565b8484546125ae565b825550505050565b600090565b61266861265b565b612673818484612636565b505050565b5b818110156126975761268c600082612660565b600181019050612679565b5050565b601f8211156126dc576126ad8161257c565b6126b684612591565b810160208510156126c5578190505b6126d96126d185612591565b830182612678565b50505b505050565b600082821c905092915050565b60006126ff600019846008026126e1565b1980831691505092915050565b600061271883836126ee565b9150826002028217905092915050565b612731826122a0565b67ffffffffffffffff81111561274a57612749611c1b565b5b612754825461254b565b61275f82828561269b565b600060209050601f8311600181146127925760008415612780578287015190505b61278a858261270c565b8655506127f2565b601f1984166127a08661257c565b60005b828110156127c8578489015182556001820191506020850194506020810190506127a3565b868310156127e557848901516127e1601f8916826126ee565b8355505b6001600288020188555050505b505050505050565b7f796f7520617265206e6f7420746865206f776e65720000000000000000000000600082015250565b6000612830601583611ffa565b915061283b826127fa565b602082019050919050565b6000602082019050818103600083015261285f81612823565b9050919050565b60008190508160005260206000209050919050565b601f8211156128bc5761288d81612866565b61289684612591565b810160208510156128a5578190505b6128b96128b185612591565b830182612678565b50505b505050565b6128ca82611fef565b67ffffffffffffffff8111156128e3576128e2611c1b565b5b6128ed825461254b565b6128f882828561287b565b600060209050601f83116001811461292b5760008415612919578287015190505b612923858261270c565b86555061298b565b601f19841661293986612866565b60005b828110156129615784890151825560018201915060208501945060208101905061293c565b8683101561297e578489015161297a601f8916826126ee565b8355505b6001600288020188555050505b505050505050565b600061299e82611e86565b91507fffffffffffffffffffffffffffffffffffffffffffffffffffffffffffffffff82036129d0576129cf6124b9565b5b600182019050919050565b60006040820190506129f06000830185611ee7565b8181036020830152612a02818461203e565b90509392505050565b600081905092915050565b6000612a2182611fef565b612a2b8185612a0b565b9350612a3b81856020860161200b565b80840191505092915050565b6000612a538284612a16565b915081905092915050565b7f4d414e5546414354555245440000000000000000000000000000000000000000600082015250565b6000612a94600c83612a0b565b9150612a9f82612a5e565b600c82019050919050565b6000612ab582612a87565b9150819050919050565b7f44454c49564552494e475f494e5445524e4154494f4e414c0000000000000000600082015250565b6000612af5601883612a0b565b9150612b0082612abf565b601882019050919050565b6000612b1682612ae8565b9150819050919050565b7f53544f5245440000000000000000000000000000000000000000000000000000600082015250565b6000612b56600683612a0b565b9150612b6182612b20565b600682019050919050565b6000612b7782612b49565b9150819050919050565b7f44454c49564552494e475f4c4f43414c00000000000000000000000000000000600082015250565b6000612bb7601083612a0b565b9150612bc282612b81565b601082019050919050565b6000612bd882612baa565b9150819050919050565b7f44454c4956455245440000000000000000000000000000000000000000000000600082015250565b6000612c18600983612a0b565b9150612c2382612be2565b600982019050919050565b6000612c3982612c0b565b9150819050919050565b7f726563696576656420696e76616c69642063657274696669636174696f6e207360008201527f7461747573000000000000000000000000000000000000000000000000000000602082015250565b6000612c9f602583611ffa565b9150612caa82612c43565b604082019050919050565b60006020820190508181036000830152612cce81612c92565b9050919050565b600081905092915050565b6000612ceb826122a0565b612cf58185612cd5565b9350612d0581856020860161200b565b80840191505092915050565b6000819050919050565b612d2c612d27826120b5565b612d11565b82525050565b6000612d3e8285612ce0565b9150612d4a8284612d1b565b6020820191508190509392505050565b612d63816120b5565b82525050565b600060ff82169050919050565b612d7f81612d69565b82525050565b6000608082019050612d9a6000830187612d5a565b612da76020830186612d76565b612db46040830185612d5a565b612dc16060830184612d5a565b95945050505050565b7f4953535545520000000000000000000000000000000000000000000000000000600082015250565b6000612e00600683612a0b565b9150612e0b82612dca565b600682019050919050565b6000612e2182612df3565b9150819050919050565b7f50524f5645520000000000000000000000000000000000000000000000000000600082015250565b6000612e61600683612a0b565b9150612e6c82612e2b565b600682019050919050565b6000612e8282612e54565b9150819050919050565b7f5645524946494552000000000000000000000000000000000000000000000000600082015250565b6000612ec2600883612a0b565b9150612ecd82612e8c565b600882019050919050565b6000612ee382612eb5565b9150819050919050565b7f726563696576656420696e76616c696420656e74697479000000000000000000600082015250565b6000612f23601783611ffa565b9150612f2e82612eed565b602082019050919050565b60006020820190508181036000830152612f5281612f16565b905091905056fea264697066735822122086e1e15cd3af4dd3fc9c5f90db2b96ac305cf78981419f3100bbc274fa4f44bb64736f6c634300080f0033",
  "immutableReferences": {},
  "source": "pragma solidity >=0.7.0 <0.9.0;\r\n//SPDX-License-Identifier: NIT-Goa\r\nlibrary CryptoSuite{\r\n    function splitSignature(bytes memory sig) internal pure returns(uint8 v,bytes32 r, bytes32 s){\r\n        require(sig.length==65);\r\n\r\n        assembly{\r\n            //first 32bytes\r\n            r:= mload(add(sig,32))\r\n            \r\n            //first 32bytes\r\n            s:= mload(add(sig,64))\r\n            \r\n            //first 32bytes\r\n            v:= byte(0,mload(add(sig,96)))\r\n\r\n        }\r\n\r\n        return (v,r,s);\r\n    }\r\n\r\n    function recoverSigner(bytes32 message,bytes memory sig) internal pure returns(address){\r\n        (uint8 v,bytes32 r,bytes32 s) = splitSignature(sig);\r\n        bytes memory prefix =\"\\x19Ethereum Signed Message:\\n32\";\r\n        bytes32 prefixedHash = keccak256(abi.encodePacked(prefix,message));\r\n\r\n        return ecrecover(prefixedHash,v,r,s);\r\n    }\r\n}\r\n\r\ncontract SupplyChain{\r\n\r\n    address payable owner;\r\n    struct item{\r\n        uint price;\r\n        string desc;\r\n        address buyer;\r\n    }\r\n\r\n    mapping(uint => item) public items;\r\n    uint private counter =0;\r\n\r\n    modifier OnlyOwner{\r\n        require(msg.sender == owner,\"you are not the owner\");\r\n        _;\r\n    }\r\n\r\n    modifier PaidEnough(uint _price){\r\n        require(msg.value >= _price);\r\n        _;\r\n    }\r\n\r\n\r\n    constructor(){\r\n    \r\n        owner = payable(msg.sender);\r\n    }\r\n\r\n    function add(uint _price,string memory _desc) public OnlyOwner{\r\n        items[counter]= item(_price,_desc,address(0));\r\n        counter++;\r\n    }\r\n\r\n    function buy(uint _id) public payable PaidEnough(msg.value){\r\n        owner.transfer(msg.value);\r\n        items[_id].buyer =msg.sender;\r\n    }\r\n    //internal code\r\n    enum Status{MANUFACTURED,DELIVERING_INTERNATIONAL,STORED,DELIVERING_LOCAL,DELIVERED}\r\n\r\n    struct Certificate{\r\n        uint id;\r\n        Entity issuer;\r\n        Entity prover;\r\n        bytes signature;\r\n        Status status;\r\n    }\r\n\r\n    enum Mode {ISSUER,PROVER,VERIFIER}\r\n    struct Entity{\r\n        address id;\r\n        Mode mode;\r\n        uint[] certificateID;\r\n    }\r\n\r\n    struct Batch{\r\n        uint id;\r\n        string brand;\r\n        address manufacturer;\r\n        uint[] certificateID;\r\n    }\r\n\r\n    uint public constant MAX_CERTIFICATIONS=2;\r\n\r\n    uint[] public certificateID;\r\n    uint[] public BatchIds;\r\n\r\n    mapping(uint => Batch) public Batches;\r\n    mapping(uint => Certificate) public certificates;\r\n    mapping(address => Entity) public entities;\r\n    \r\n    event AddEntity(address entityId,string entityMode);\r\n    event AddBatch(uint BatchId,address indexed manufacturer);\r\n    event IssueCertificate(address indexed issuer, address indexed prover, uint certificateId);\r\n\r\n    function addEntity(address _id,string memory _mode) public {\r\n        Mode mode = unmarshalMode(_mode);\r\n        uint[] memory _certificateID = new uint[](MAX_CERTIFICATIONS);\r\n        Entity memory entity = Entity(_id,mode,_certificateID);\r\n        entities[_id]=entity;\r\n\r\n        emit AddEntity(entity.id,_mode);\r\n    }\r\n\r\n    function unmarshalMode(string memory _mode) private pure returns(Mode mode){\r\n        bytes32 encodedMode = keccak256(abi.encodePacked(_mode));\r\n        bytes32 encodedMode0 = keccak256(abi.encodePacked(\"ISSUER\"));\r\n        bytes32 encodedMode1 = keccak256(abi.encodePacked(\"PROVER\"));\r\n        bytes32 encodedMode2 = keccak256(abi.encodePacked(\"VERIFIER\"));\r\n\r\n        if(encodedMode ==encodedMode0){\r\n            return Mode.ISSUER;\r\n        }\r\n        else if(encodedMode ==encodedMode1){\r\n            return Mode.PROVER;\r\n        }\r\n        else if(encodedMode ==encodedMode2){\r\n            return Mode.VERIFIER;\r\n        }\r\n\r\n        revert(\"recieved invalid entity\");\r\n    }\r\n\r\n    function addBatch(string memory brand,address manufacturer) public returns(uint) {\r\n        \r\n        uint[] memory _certificateID = new uint[](MAX_CERTIFICATIONS);\r\n        uint id=BatchIds.length;\r\n        Batch memory batch = Batch(id,brand,manufacturer,_certificateID);\r\n\r\n        Batches[id]=batch;\r\n        BatchIds.push(id);\r\n\r\n        emit AddBatch(batch.id,batch.manufacturer);\r\n        return id;\r\n        \r\n    }\r\n\r\n    function issueCertificate(address _issuer,address _prover, string memory _status,\r\n                             /* uint BatchId,*/bytes memory signature) public returns(uint){\r\n        Entity memory issuer = entities[_issuer];\r\n        require(issuer.mode==Mode.ISSUER);\r\n\r\n        Entity memory prover = entities[_prover];\r\n        require(prover.mode==Mode.PROVER)\r\n        ;\r\n\r\n        Status status = unmarshalStatus(_status);\r\n        \r\n        uint id =certificateID.length;\r\n        Certificate memory certificate = Certificate(id,issuer,prover,signature,status);\r\n\r\n        certificateID.push(certificateID.length);\r\n        certificates[certificateID.length-1] = certificate;\r\n\r\n        emit IssueCertificate(_issuer,_prover,certificateID.length-1);\r\n\r\n        return certificateID.length-1;\r\n\r\n    }\r\n\r\n    function unmarshalStatus(string memory _status) private pure returns(Status status){\r\n        bytes32 encodedStatus = keccak256(abi.encodePacked(_status));\r\n        bytes32 encodedStatus0 = keccak256(abi.encodePacked(\"MANUFACTURED\"));\r\n        bytes32 encodedStatus1 = keccak256(abi.encodePacked(\"DELIVERING_INTERNATIONAL\"));\r\n        bytes32 encodedStatus2 = keccak256(abi.encodePacked(\"STORED\"));\r\n        bytes32 encodedStatus3 = keccak256(abi.encodePacked(\"DELIVERING_LOCAL\"));\r\n        bytes32 encodedStatus4 = keccak256(abi.encodePacked(\"DELIVERED\"));\r\n\r\n\r\n        if(encodedStatus ==encodedStatus0){\r\n            return Status.MANUFACTURED;\r\n        }\r\n        else if(encodedStatus ==encodedStatus1){\r\n            return Status.DELIVERING_INTERNATIONAL;\r\n        }\r\n        else if(encodedStatus ==encodedStatus2){\r\n            return Status.STORED;\r\n        }\r\n        else if(encodedStatus ==encodedStatus3){\r\n            return Status.DELIVERING_LOCAL;\r\n        }\r\n        else if(encodedStatus ==encodedStatus4){\r\n            return Status.DELIVERED;\r\n        }\r\n\r\n        revert(\"recieved invalid certification status\");\r\n    }\r\n\r\n    function isMatchingSignature(bytes32 message,uint id,address issuer) public view returns (bool){\r\n        Certificate memory cert = certificates[id];\r\n        require(cert.issuer.id==issuer);\r\n        \r\n        address recoveredSigner = CryptoSuite.recoverSigner(message,cert.signature);\r\n\r\n        return recoveredSigner == cert.issuer.id;\r\n    }\r\n    \r\n}",
  "sourcePath": "C:\\Users\\Kanishk\\Downloads\\blockchain\\contracts\\SupplyChain.sol",
  "compiler": {
    "name": "solc",
    "version": "0.8.15+commit.e14f2714.Emscripten.clang"
  },
  "schemaVersion": "3.4.4",
  "updatedAt": "2022-07-14T15:41:03.495Z",
  "networkType": "ethereum",
  "devdoc": {
    "kind": "dev",
    "methods": {},
    "version": 1
  },
  "userdoc": {
    "kind": "user",
    "methods": {},
    "version": 1
  }
}